:100000000EC029C027C026C025C024C023C022C0DE
:1000100021C020C01FC01EC01DC01CC01BC0112499
:100020001FBECFE5D1E0DEBFCDBF10E0A0E6B0E05F
:10003000E8ECF1E002C005900D92A237B107D9F7C4
:1000400020E0A2E7B0E001C01D92A437B207E1F7BB
:1000500019D0B8C0D5CF1F920F920FB60F921124AE
:100060008F939F93B29B07C081E090E090937300C1
:1000700080937200F8949F918F910F900FBE0F9014
:100080001F90189578948BB780648BBFAE9A8BE3E2
:1000900087BB21E253E238E260E272E241E1E1E053
:1000A00028BB8FE799EAA3E081509040A040E1F798
:1000B00000C0000058BBBFE7F9EA83E0B150F04050
:1000C0008040E1F700C0000038BB9FE7A9EAB3E039
:1000D0009150A040B040E1F700C00000FFEF82E582
:1000E00097E0F15080409040E1F700C0000084E0CC
:1000F00090E0AFEBB4EDF1E0A150B040F040E1F79B
:1001000000C0000068BBAFEBB4EDF1E0A150B0401F
:10011000F040E1F700C0000038BB019751F788E2DA
:1001200088BB8FE799EAA3E081509040A040E1F7B7
:1001300000C0000078BBBFE7F9EA83E0B150F040AF
:100140008040E1F700C0000028BB9FE7A9EAB3E0C8
:100150009150A040B040E1F700C0000080917200D3
:1001600090917300892B09F048BBFFE78FE492E17F
:10017000F15080409040E1F700C000008091720093
:1001800090917300892B29F41092730010927200E1
:1001900087CF84E090E0AFEBB4EDF1E0A150B04048
:1001A000F040E1F700C0000048BBAFEBB4EDF1E078
:1001B000A150B040F040E1F700C00000E8BB01975B
:0801C00051F7E2CFF894FFCFE4
:1001C800210023002800280022002100E8038813CA
:0201D800D0074E
:00000001FF
